S015000046696E616C2050726F6A6563742E737265632E
S11300000C942A000C9493000C94BA000C943C00B9
S11300100C943C000C943C000C943C000C943C006C
S11300200C943C000C943C000C943C000C943C005C
S11300300C943C000C943C000C943C000C943C004C
S11300400C943C000C943C000C943C000C943C003C
S11300500C943C0011241FBECFE5D8E0DEBFCDBF19
S113006020E0A0E6B0E001C01D92A236B207E1F79D
S11300700E9444000C94E2000C9400008AE683BFC2
S113008087B3886087BB08950E943E008FEF87BBCB
S113009081B38B7F81BB82B3886082BB81B3877F4E
S11300A081BB82B3846082BB8AE085BF8BB78064E6
S11300B08BBF8BB780688BBF7894809160009091E0
S11300C06100181619065CF488B3816088BB88B394
S11300D08D7F88BB80916000909161008CBF80917E
S11300E0600090916100992384F488B3826088BB96
S11300F088B38E7F88BB80916000909161009923C2
S11301001CF49195819591098CBF80916000909128
S11301106100892B91F688B38D7F88BB88B38E7F6D
S113012088BB1CBECACF1F920F920FB60F92112428
S11301308F939F9380916000909161004996909372
S113014061008093600080916000909161008F3F16
S1130150910539F034F08FEF90E090936100809333
S11301606000829BFECF9F918F910F900FBE0F90E6
S11301701F9018951F920F920FB60F9211242F9370
S11301808F939F9380916000909161004997909321
S113019061008093600080916000909161008130E3
S11301A09F4F34F481E09FEF90936100809360004F
S11301B0839BFECF9F918F912F910F900FBE0F9035
S10B01C01F901895F894FFCF7D
S9030000FC
